:100000000C9461000C9473000C9473000C947300B6
:100010000C9473000C9473000C9473000C94730094
:100020000C9473000C9473000C9473000C94730084
:100030000C9473000C9473000C9473000C94730074
:100040000C944F010C9473000C9473000C94730087
:100050000C9473000C9473000C9473000C94730054
:100060000C9473000C94730000000008000201005F
:100070000003040700000000000000000102040863
:100080001020408001020408102001020408102002
:10009000040404040404040402020202020203032E
:1000A00003030303000000002300260029000000D2
:1000B0000000250028002B0000000000240027007D
:1000C0002A0011241FBECFEFD8E0DEBFCDBF21E054
:1000D000A0E0B1E001C01D92A531B207E1F70E9496
:1000E00040010C9495020C94000061E08DE00E94A8
:1000F000FD0160E08CE00E94FD0160E081E00E9473
:10010000FD0160E082E00E94FD0160E083E00E946A
:10011000FD0161E084E00E94FD0161E085E00E9454
:10012000FD0161E086E00E94FD0161E087E00E9440
:10013000FD0161E088E00E94FD0161E089E00E942C
:10014000FD0161E08AE00E94FD0161E08BE00E9418
:10015000FD01089561E084E00E94360281E00E9482
:100160006C0290930B0180930A0182E00E946C0262
:10017000909309018093080183E00E946C029093A0
:1001800007018093060160E084E00E9436028091BE
:100190000A0190910B01019729F461E086E00E9429
:1001A000360204C060E086E00E94360280910801B9
:1001B00090910901019729F461E087E00E943602DD
:1001C00004C060E087E00E943602809106019091B1
:1001D0000701019729F461E088E00E94360204C01B
:1001E00060E088E00E94360261E085E00E9436020D
:1001F00081E00E946C02909305018093040182E0EB
:100200000E946C02909303018093020183E00E949C
:100210006C02909301018093000160E085E00E94F0
:1002200036028091040190910501019729F461E063
:1002300089E00E94360204C060E089E00E94360234
:100240008091020190910301019729F461E08AE015
:100250000E94360204C060E08AE00E94360280916B
:10026000000190910101019729F461E08BE00E9467
:100270003602089560E08BE00E94360208950895EA
:100280000E9499010E943F010E947500C0E0D0E0E9
:100290000E94AA002097E1F30E940000F9CF1F926C
:1002A0000F920FB60F9211242F933F938F939F932A
:1002B000AF93BF9380910D0190910E01A0910F011A
:1002C000B091100130910C0126E0230F2D3720F45E
:1002D0000296A11DB11D05C029E8230F0396A11D9B
:1002E000B11D20930C0180930D0190930E01A093FA
:1002F0000F01B09310018091110190911201A09112
:100300001301B09114010196A11DB11D809311013B
:1003100090931201A0931301B0931401BF91AF9178
:100320009F918F913F912F910F900FBE0F901F9033
:100330001895789484B5826084BD84B5816084BD4D
:1003400085B5826085BD85B5816085BDEEE6F0E04E
:10035000808181608083E1E8F0E0108280818260AA
:100360008083808181608083E0E8F0E0808181602B
:100370008083E1EBF0E0808184608083E0EBF0E05B
:10038000808181608083EAE7F0E0808184608083FF
:1003900080818260808380818E7F8083808180687D
:1003A00080831092C1000895833081F028F4813059
:1003B00099F08230A1F008958730A9F08830B9F023
:1003C0008430D1F4809180008F7D03C080918000C3
:1003D0008F7780938000089584B58F7702C084B5AD
:1003E0008F7D84BD08958091B0008F7703C0809188
:1003F000B0008F7D8093B0000895CF93DF9390E09D
:10040000FC01E458FF4F2491FC01E057FF4F849119
:10041000882349F190E0880F991FFC01E854FF4FB1
:10042000A591B49182559F4FFC01C591D4919FB77E
:10043000611108C0F8948C91209582238C93888157
:1004400082230AC0623051F4F8948C91322F309597
:1004500083238C938881822B888304C0F8948C91A9
:10046000822B8C939FBFDF91CF9108950F931F93A1
:10047000CF93DF931F92CDB7DEB7282F30E0F9017D
:10048000E859FF4F8491F901E458FF4F1491F901A5
:10049000E057FF4F04910023C9F0882321F06983BE
:1004A0000E94D4016981E02FF0E0EE0FFF1FE255BA
:1004B000FF4FA591B4919FB7F8948C91611103C03F
:1004C0001095812301C0812B8C939FBF0F90DF91EA
:1004D000CF911F910F910895CF93DF93282F30E094
:1004E000F901E859FF4F8491F901E458FF4FD49185
:1004F000F901E057FF4FC491CC2391F081110E9484
:10050000D401EC2FF0E0EE0FFF1FEC55FF4FA5914B
:10051000B4912C912D2381E090E021F480E002C081
:0E05200080E090E0DF91CF910895F894FFCF36
:00000001FF
